:020000040800F2
:1000000000002720D5000108E9490008EB49000855
:10001000ED490008EF490008F149000825010108F1
:1000200000000000000000000000000051DA00089D
:10003000F349000800000000F1D90008CDF60008DF
:1000400025010108250101082501010825010108F4
:1000500025010108250101082501010825010108E4
:1000600025010108250101082501010825010108D4
:1000700025010108250101082501010825010108C4
:1000800025010108F549000825010108250101089D
:1000900025010108250101082501010825010108A4
:1000A0002501010825010108250101082501010894
:1000B00000000000250101082501010825010108B3
:1000C0002501010825010108250101082501010874
:1000D000250101082501010825010108014A000840
:1000E0002501010825010108250101082501010854
:1000F00025010108D94A0008250101082501010848
:100100002501010825010108250101082501010833
:100110002501010825010108250101082501010823
:100120002501010825010108250101082501010813
:100130002501010825010108250101082501010803
:1001400025010108250101082501010825010108F3
:1001500025010108250101082501010825010108E3
:1001600025010108250101082501010825010108D3
:1001700025010108250101082501010825010108C3
:1001800025010108250101082501010825010108B3
:1001900025010108250101082501010825010108A3
:1001A0002501010825010108250101082501010893
:1001B00025010108000000002501010825010108B2
:1001C00025010108000000002501010825010108A2
:1001D0002501010825010108250101082501010863
:1001E0002501010825010108250101082501010853
:1001F00000000000000000002501010825010108A1
:100200002501010825010108250101082501010832
:100210002501010825010108B92D00082501010863
:100220002501010825010108250101082501010812
:100230002501010825010108250101082501010802
:1002400025010108250101082501010825010108F2
:10025000E54A0008F14A000825010108FD4A0008A6
:0C02600025010108250101082501010805
:1002700010B5054C237833B9044B13B1044800E0A2
:1002800000BF0123237010BDC829232000000000F7
:1002900078B1020808B5034B1BB10349034800E0DD
:1002A00000BF08BD00000000CC29232078B102085F
:1002B00081F0004102E000BF83F0004330B54FEA17
:1002C00041044FEA430594EA050F08BF90EA020F84
:1002D0001FBF54EA000C55EA020C7FEA645C7FEA17
:1002E000655C00F0E2804FEA5454D4EB5555B8BF3A
:1002F0006D420CDD2C4480EA020281EA030382EAAB
:10030000000083EA010180EA020281EA0303362D3C
:1003100088BF30BD11F0004F4FEA01314FF4801C0F
:100320004CEA113102D0404261EB410113F0004F21
:100330004FEA03334CEA133302D0524263EB4303D8
:1003400094EA050F00F0A780A4F10104D5F1200E76
:100350000DDB02FA0EFC22FA05F2801841F10001D1
:1003600003FA0EF2801843FA05F359410EE0A5F1A5
:1003700020050EF1200E012A03FA0EFC28BF4CF0D6
:10038000020C43FA05F3C01851EBE37101F000458C
:1003900007D54FF0000EDCF1000C7EEB00006EEB99
:1003A0000101B1F5801F1BD3B1F5001F0CD3490823
:1003B0005FEA30004FEA3C0C04F101044FEA44527A
:1003C00012F5800F80F09A80BCF1004F08BF5FEA01
:1003D000500C50F1000041EB045141EA050130BDE1
:1003E0005FEA4C0C404141EB010111F4801FA4F184
:1003F0000104E9D191F0000F04BF01460020B1FAD9
:1004000081F308BF2033A3F10B03B3F120020CDA10
:100410000C3208DD02F1140CC2F10C0201FA0CF0EE
:1004200021FA02F10CE002F11402D8BFC2F1200C53
:1004300001FA02F120FA0CFCDCBF41EA0C01904009
:10044000E41AA2BF01EB0451294330BD6FEA040452
:100450001F3C1CDA0C340EDC04F11404C4F120023D
:1004600020FA04F001FA02F340EA030021FA04F34F
:1004700045EA030130BDC4F10C04C4F1200220FAA6
:1004800002F001FA04F340EA0300294630BD21FAE4
:1004900004F0294630BD94F0000F83F4801306BFAA
:1004A00081F480110134013D4EE77FEA645C18BF9E
:1004B0007FEA655C29D094EA050F08BF90EA020F35
:1004C00005D054EA000C04BF1946104630BD91EA2D
:1004D000030F1EBF0021002030BD5FEA545C05D130
:1004E0004000494128BF41F0004130BD14F580046F
:1004F0003CBF01F5801130BD01F0004545F0FE41E3
:1005000041F470014FF0000030BD7FEA645C1ABF17
:10051000194610467FEA655C1CBF0B46024650EA4E
:10052000013406BF52EA033591EA030F41F400217A
:1005300030BD00BF90F0000F04BF0021704730B500
:100540004FF4806404F132044FF000054FF00001D5
:1005500050E700BF90F0000F04BF0021704730B596
:100560004FF4806404F1320410F0004548BF40426B
:100570004FF000013EE700BF42004FEAE2014FEAC0
:1005800031014FEA02701FBF12F07F4393F07F4F9B
:1005900081F06051704732F07F4208BF704793F09E
:1005A0007F4F04BF41F40021704730B54FF46074B1
:1005B00001F0004521F000411CE700BF50EA0102B4
:1005C00008BF704730B54FF000050AE050EA01025D
:1005D00008BF704730B511F0004502D5404261EBCD
:1005E00041014FF4806404F132045FEA915C3FF40E
:1005F000D8AE4FF003025FEADC0C18BF03325FEAAB
:10060000DC0C18BF033202EBDC02C2F1200300FA5B
:1006100003FC20FA02F001FA03FE40EA0E0021FA80
:1006200002F11444BDE600BF70B54FF0FF0C4CF46E
:10063000E06C1CEA11541DBF1CEA135594EA0C0F20
:1006400095EA0C0F00F0DEF82C4481EA030621EA5B
:100650004C5123EA4C5350EA013518BF52EA033596
:1006600041F4801143F4801338D0A0FB02CE4FF048
:100670000005E1FB02E506F00042E0FB03E54FF078
:100680000006E1FB03569CF0000F18BF4EF0010E70
:10069000A4F1FF04B6F5007F64F5407404D25FEA6C
:1006A0004E0E6D4146EB060642EAC62141EA55511F
:1006B0004FEAC52040EA5E504FEACE2EB4F1FD0C61
:1006C00088BFBCF5E06F1ED8BEF1004F08BF5FEADF
:1006D000500E50F1000041EB045170BD06F0004691
:1006E00046EA010140EA020081EA0301B4EB5C043E
:1006F000C2BFD4EB0C0541EA045170BD41F4801136
:100700004FF0000E013C00F3AB8014F1360FDEBF5A
:10071000002001F0004170BDC4F10004203C35DA36
:100720000C341BDC04F11404C4F1200500FA05F3B9
:1007300020FA04F001FA05F240EA020001F000425A
:1007400021F0004110EBD37021FA04F642EB0601D0
:100750005EEA430E08BF20EAD37070BDC4F10C04FA
:10076000C4F1200500FA04F320FA05F001FA04F2BE
:1007700040EA020001F0004110EBD37041F10001AA
:100780005EEA430E08BF20EAD37070BDC4F12005B5
:1007900000FA05F24EEA020E20FA04F301FA05F21D
:1007A00043EA020321FA04F001F0004121FA04F2C5
:1007B00020EA020000EBD3705EEA430E08BF20EA95
:1007C000D37070BD94F0000F0FD101F000464000CF
:1007D00041EB010111F4801F08BF013CF7D041EA51
:1007E000060195F0000F18BF704703F00046520055
:1007F00043EB030313F4801F08BF013DF7D043EA26
:100800000603704794EA0C0F0CEA135518BF95EADB
:100810000C0F0CD050EA410618BF52EA4306D1D162
:1008200081EA030101F000414FF0000070BD50EA81
:10083000410606BF1046194652EA430619D094EA0B
:100840000C0F02D150EA013613D195EA0C0F05D1F5
:1008500052EA03361CBF104619460AD181EA030149
:1008600001F0004141F0FE4141F470014FF0000001
:1008700070BD41F0FE4141F4780170BD70B54FF09C
:10088000FF0C4CF4E06C1CEA11541DBF1CEA13551C
:1008900094EA0C0F95EA0C0F00F0A7F8A4EB0504FE
:1008A00081EA030E52EA03354FEA013100F08880F5
:1008B0004FEA03334FF0805545EA131343EA1263BE
:1008C0004FEA022245EA111545EA10654FEA002673
:1008D0000EF000419D4208BF964244F1FD0404F52C
:1008E000407402D25B084FEA3202B61A65EB030588
:1008F0005B084FEA32024FF480104FF4002CB6EB45
:10090000020E75EB030E22BFB61A754640EA0C00C4
:100910005B084FEA3202B6EB020E75EB030E22BF04
:10092000B61A754640EA5C005B084FEA3202B6EB45
:10093000020E75EB030E22BFB61A754640EA9C0004
:100940005B084FEA3202B6EB020E75EB030E22BFD4
:10095000B61A754640EADC0055EA060E18D04FEA92
:10096000051545EA16754FEA06164FEAC30343EA32
:1009700052734FEAC2025FEA1C1CC0D111F4801FFF
:100980000BD141EA00014FF000004FF0004CB6E7F8
:1009900011F4801F04BF01430020B4F1FD0C88BF97
:1009A000BCF5E06F3FF6AFAEB5EB030C04BFB6EBA2
:1009B000020C5FEA500C50F1000041EB045170BD95
:1009C0000EF0004E4EEA113114EB5C04C2BFD4EBC2
:1009D0000C0541EA045170BD41F480114FF0000E46
:1009E000013C90E645EA060E8DE60CEA135594EAC2
:1009F0000C0F08BF95EA0C0F3FF43BAF94EA0C0FC5
:100A00000AD150EA01347FF434AF95EA0C0F7FF439
:100A100025AF104619462CE795EA0C0F06D152EA8D
:100A200003353FF4FDAE1046194622E750EA410671
:100A300018BF52EA43067FF4C5AE50EA41047FF482
:100A40000DAF52EA43057FF4EBAE12E74A0011D234
:100A500012F5001211D20DD56FF47873B3EB625218
:100A60000ED44FEAC12343F0004343EA505323FA24
:100A700002F070474FF00000704750EA013002D199
:100A80004FF0FF3070474FF0000070474FEA4102CF
:100A9000B2F1E04324BFB3F5001CDCF1FE5C0DD9DC
:100AA00001F0004C4FEAC0024CEA5070B2F1004F26
:100AB00040EB830008BF20F00100704711F0804F29
:100AC00021D113F13872BCBF01F00040704741F4EE
:100AD00080114FEA5252C2F11802C2F1200C10FAF2
:100AE0000CF320FA02F018BF40F001004FEAC123D6
:100AF0004FEAD32303FA0CFC40EA0C0023FA02F37A
:100B00004FEA4303CCE77FEA625307D150EA01334F
:100B10001EBF4FF0FE4040F44000704701F000401F
:100B200040F0FE4040F40000704700BF53B94AB99E
:100B3000002908BF00281CBF4FF0FF314FF0FF30E5
:100B400000F07CB9ADF1080C6DE904CE00F006F8B8
:100B5000DDF804E0DDE9022304B070472DE9F04739
:100B60008C46089D04468A46002B4AD18A42174685
:100B700062D9B2FA82F64EB1C6F1200E01FA06F33E
:100B8000B740B44020FA0EFE4EEA030A4FEA174877
:100B9000230C1FFA87F9BAFBF8FE08FB1EAA0EFB0E
:100BA00009F243EA0A439A420BD9FB180EF1FF31CE
:100BB0002CBF012000209A4202D9002800F02A818F
:100BC0008E469A1AA3B2B2FBF8F008FB102200FB83
:100BD00009F943EA0244A14507D93C1900F1FF3362
:100BE00002D2A14500F210811846A4EB090440EAA4
:100BF0000E4000211DB1F4400023C5E90043BDE8CB
:100C0000F0878B4208D9002D00F0F2800021C5E961
:100C1000000C0846BDE8F087B3FA83F100294ED1F5
:100C20006345C0F0E880824240F2E5800846002D2E
:100C3000E5D0C5E9004AE2E702B9FFDEB2FA82F682
:100C4000002E40F099808B1A4FEA124E1FFA82F85C
:100C500001214FEA144CB3FBFEF20EFB123008FBED
:100C600002F94CEA004CE14508D917EB0C0C02F1F3
:100C7000FF3302D2E14500F2CA801A46ACEB090C00
:100C8000A3B2BCFBFEF00EFB10CC08FB00F843EA5D
:100C90000C44A0450ED93C1900F1FF332CBF4FF096
:100CA000010C4FF0000CA04503D9BCF1000F00F07F
:100CB000A8801846A4EB080440EA02409AE7C1F174
:100CC00020048B4002FA01FE0CFA01F6E24020FA01
:100CD00004F72CFA04FC00FA01F813433E431F0CFE
:100CE000320C1FFA83F9BCFBF7F007FB10CC00FBBA
:100CF00009FA42EA0C4CE24508D913EB0C0C00F15E
:100D0000FF3202D2E24500F289801046ACEB0A0CB9
:100D1000B6B2BCFBF7FA07FB1ACC0AFB09F946EAA4
:100D20000C42914506D99A180AF1FF3601D2914535
:100D30007AD8B2464AEA0040A2EB0902A0FB0E674D
:100D4000BA42B446B94602D307D1B04505D2B6EB94
:100D50000E0C67EB030301389946002D6BD0B8EBFE
:100D60000C0362EB090202FA04F4CB40CA400021F2
:100D70001C43C5E9004242E7B740C6F1200201FA30
:100D800006F3B44021FA02FC4FEA174E20FA02F2B1
:100D90001FFA87F8BCFBFEF11A430EFB11CC01FBD6
:100DA00008F0130C43EA0C4C604507D917EB0C0C08
:100DB00001F1FF3301D2604533D81946ACEB000C8A
:100DC00092B2BCFBFEF00EFB10CC00FB08F342EA33
:100DD0000C4C634507D917EB0C0C00F1FF3201D224
:100DE000634525D81046ACEB030340EA014130E7E8
:100DF0002946284603E7841A6CEB030301209A4630
:100E000015E702383C4455E702383C44EDE6023A27
:100E1000BC4433E7AEF1020E3B44D2E602389C44B8
:100E200074E70239BC44C9E7AAF1020A1A4481E70F
:100E30000238BC44D7E72946E1E600BF704700BF4F
:100E400090F8252012B103685B69184770478180CC
:100E50007047C1807047018170474181704770477A
:100E60007047704770477047C38810B4D21A8388A0
:100E700012B2C91A036809B25B6D5DF8044B1847DA
:100E8000806A704710B50446024B036000F008FA10
:100E9000204610BDE8B1020810B50446FFF7F2FF86
:100EA00020464FF4CE7129F045F9204610BD0000D0
:100EB00010B5044600F02EFA014B2046236010BD09
:100EC000E8B1020800F0EDB910B500F15804204671
:100ED0000FF001FA2046BDE8104014F0E9BB000015
:100EE00010B50446024B036000F0A4FA204610BD82
:100EF00080B2020810B50446FFF7F2FF20464FF417
:100F00009A7129F017F9204610BD0000B5EEC00A0D
:100F1000F1EE10FAABBFFBEE007AF3EE007A60EE72
:100F2000277A60EE277AF1EE046AA8BFF9EE045A38
:100F3000F5EEC00A9FED236AACBF87EEA57A87EE77
:100F4000A67AF1EE10FA37EE067AA9BFB3EE006A80
:100F5000BBEE016A20EE866AB9EE045AB6BF20EEF7
:100F6000866AC6EE057AC6EE267ADFED175AB4EE2B
:100F7000E60A77EEA57AF1EE10FABDEEC77AFDEE3D
:100F8000E77A10DCF4EEE60AF1EE10FA0BDCF9EE8B
:100F9000046AB4EEE60AF1EE10FA04D4F4EEE60ABE
:100FA000F1EE10FA0BD5012380F8A93017EE103AB4
:100FB000A0F8B43017EE903AA0F8B630704700238E
:100FC000F2E700BF000096420000BE4210B50446A2
:100FD00000F03AFA014B2046236010BD80B20208AF
:100FE00000F029BA10B50446024B036000F0E9FA9C
:100FF000204610BD18B3020810B50446FFF7F2FFF3
:101000002046A02129F096F8204610BD10B50446D0
:1010100000F000FB014B2046236010BD18B302080E
:1010200000F0D0BA7047043870477047C068036852
:10103000DB6A1847A0F10400FFF7F8BF10B50446BB
:10104000102129F077F8204610BDA0F10400F5E743
:10105000002210B58260044AC16002F10804243203
:101060000460426010BD00BFA4B30208704770471F
:101070007047704710B50446024B036000F000FC57
:10108000204610BDE0B3020810B50446FFF7F2FF9A
:10109000204640F6A40129F04DF8204610BD00007E
:1010A00010B5044600F040FC014B2046236010BD03
:1010B000E0B3020800F0CCBBF0B504462DED048B84
:1010C000B0EE409AB0EE608A0D46DFED3E8A83B006
:1010D00000F2144004F5B4761746FFF7F5FEF0EE83
:1010E000480AB0EE490A3046FFF710FF2B46364A51
:1010F000042104F67C0016F0BCFA69EE287AFDEEB5
:10110000E77A314A17EE903A042104F6920016F07D
:10111000B0FA19EE100AFFF72FFA04F69A05CDE996
:101120000001294A2846042116F0A3FAFDEEC87AE8
:1011300017EE905AFFEE007AB4EEE78AF1EE10FA5D
:1011400004F684003CDDB5EEC08AF1EE10FA37D526
:101150006B421D4A042116F08CFA07EE905AF8EE05
:10116000E77A38EE678A68EE287A17EE900AFFF77A
:1011700003FA0022154BFFF7A1F8FFF767FC124AAC
:101180000346032104F68C0016F073FA04F1C40040
:1011900014F08EFA04F5FE6014F08AFA04F5F46097
:1011A00014F086FA04F2DC5084F8017614F080FA28
:1011B000304603B0BDEC048BBDE8F04014F078BAC3
:1011C0002B46C6E70000C842D4B302080000E03F47
:1011D0000022026070470000064A0068D2ED000A53
:1011E000054A036892ED000A0449054A9B68127893
:1011F00009781847102823200C282320585225202E
:101200000D532520704700F598730868496803C39B
:101210007047704700F0ECBF10B504464FF4AE7154
:1012200028F088FF204610BD10B50446D0F85801BC
:10123000FFF7D2FF2046BDE8104013F015BA10B5F5
:101240000446D0F8400158B10368DB68984738B1CC
:10125000D4F8400103689B6898470023C4F84031E4
:1012600010BD000010B5044600F092FF014B20466F
:10127000236010BD18B40208002070474FF6FF73BA
:1012800083814FF0FF3303621368C36110607047BE
:1012900090F825201AB190F8242002B11860704708
:1012A0007047704710B504464FF4CE7128F042FFE6
:1012B000204610BD70B50446154603681B6B984761
:1012C000236829462046BDE870405B6B1847000044
:1012D000002310B58380C380038143818381C38150
:1012E00003824382C0E90533C3610384438480F8E9
:1012F0002430012380F82530054B044603600B8819
:10130000C384FF2380F8283011F0D3FB204610BDA2
:1013100078D202082DE9F04F002580464FF0010AEF
:101320004FF6FF7B044685B0404B04AF27F804BD61
:101330008580C580058145818581C581058245827D
:10134000C0E90555C5610584458480F8245080F8BE
:1013500025A0856248F82C3B04F1580639464046E2
:10136000FFF7B6FF04F5B87930460FF0EBF83946D1
:101370004846ADF80CB0FFF7ABFF2D4B40F21F1203
:10138000A36029464046FFF795FF1623394640469D
:10139000ADF80C3011F08DFB414620460FF0FEFAFF
:1013A00030461C226021FFF785FF4FF494732A46D4
:1013B0000093294630464FF496730EF074FF642272
:1013C0002B462946304600950FF040F93046032160
:1013D0000EF0F5FE042339463046ADF80C300FF020
:1013E00070FA304602210EF030FF304632210EF006
:1013F00072FF514630460EF009FF314620460FF08D
:10140000CDFA2A4648466021FFF754FF03233946A8
:101410004846ADF80C3011F04CFB204649460FF021
:10142000BDFA204605B0BDE8F08F00BF6CB40208DD
:10143000E80024017047704710B504464FF49A71D4
:1014400028F078FE204610BD2DE9F04F012300253D
:101450004FF6FF778046044685B0574A04AE26F81B
:10146000047D80F825308580C58005814581858192
:10147000C58105824582C0E90555C561058445845D
:1014800080F82450856248F82C2B04F1580B314623
:101490004046FFF71DFF04F1840A3146584604F127
:1014A000B009ADF80C70FFF713FF31465046ADF8A8
:1014B0000C70FFF70DFF31464846ADF80C70FFF792
:1014C00007FF04F1DC03314618460093ADF80C70B9
:1014D000FFF7FEFE04F58473184631460193ADF81C
:1014E0000C70FFF7F5FE354A2946A26040464FF0E2
:1014F000FF32FFF7DFFE102231464046ADF80C20E8
:1015000011F0D7FA414620460FF048FA1D225846FE
:101510000921FFF7CFFE0B2331465846ADF80C30BA
:1015200011F0C7FA594620460FF038FA1D225046EE
:101530000921FFF7BFFE31465046ADF80C5011F0BF
:10154000B8FA5146204684F8A9500FF027FA5F22D6
:1015500048464B21FFF7AEFE152331464846ADF80D
:101560000C3011F0A6FA494620460FF017FA1D225A
:1015700000980921FFF79EFE172331460098ADF829
:101580000C3011F096FA009920460FF007FA1D2250
:1015900001980921FFF78EFE182331460198ADF816
:1015A0000C3011F086FA204601990FF0F7F9204629
:1015B00005B0BDE8F08F00BF00B50208A800D1005B
:1015C00070477047704710B50446082128F0B2FDF7
:1015D000204610BD10B50446A02128F0ABFD2046E2
:1015E00010BD00000A4A026000228280C28002818F
:1015F00042818281C28102824282C0E90522C261A7
:101600000284428480F82420012280F8252070473B
:1016100038D302082DE9F0470446002526464FF04E
:10162000260A4FF6FF7986B0FFF7DCFF3C4BA56238
:1016300046F82C3B524629463046ADF8109028F02B
:101640000EFE3046FFF7CEFF364B0DF11808E36271
:1016500038F8083D04F15807A4F8523041463046A6
:1016600084F8549011F025FA52462946384628F05D
:10167000F6FD3846FFF7B6FF2B4BDFF8B4A0A365A5
:101680004FF47F03C4F88C30284BC4F88850A36013
:1016900084F8905084F89150A4F89450A4F896508F
:1016A000C4F89C503046C4F880A0A4F88490A4F8F4
:1016B0009890A4F89A902221FFF7C9FB3046102198
:1016C000FFF7C7FB052341463046ADF8103011F057
:1016D000F0F9314620460FF061F9E5654FF0FF3330
:1016E000A4F88C506D46C4F888303946284610F06E
:1016F000B1FC95E8070004F1940383E80700072391
:1017000041463846ADF81430CDF810A010F03CFF3B
:10171000204639460FF042F9204606B0BDE8F08772
:10172000A4B5020878D20208FCD002086300510078
:1017300094B502087047704730B585B06D460368B0
:10174000018104460146D3F884302846984795E83D
:1017500007003C3484E8070005B030BD30B585B0E3
:101760006D460368418104460146D3F8843028461B
:10177000984795E807003C3484E8070005B030BD81
:101780000022028042808280C280704780F836103A
:10179000704770B50446154603681B6B984723686D
:1017A00029462046BDE870405B6E18470020704710
:1017B00008B5FFF745FB08BD806C7047806C70472B
:1017C000C06C70477047704710B504464C2128F034
:1017D000B1FC204610BD10B50446502128F0AAFCEB
:1017E000204610BD70B5036804465E6B114B8DB288
:1017F0001B682BB96C21104B104A114828F0A6FC2D
:101800001049828D0988914203D80F4B0B4A6D21F4
:10181000F3E713F812200D4B1B6853F822000368FE
:101820001B6B9847291A33462046BDE8704009B221
:10183000184700BF7449252053B7020848B802086A
:1018400095B7020878492520D6B702087C4925209B
:1018500010B5044600F5B470FFF7C2FB04F2144063
:10186000FFF730FB04F5E060BDE81040FFF7D8BBA0
:1018700000224FF0FF318260C0E900217047000074
:1018800010B504460B4B03600B4B00F5E0600360A2
:10189000FFF797FE094B04F21440C4F81434FFF725
:1018A000FFFC074B04F5B470C4F86831FFF7C2FDC4
:1018B000204610BD1CB8020818B30208E8B102089F
:1018C00080B2020810B50446FFF7DAFF204640F662
:1018D000A40128F02FFC204610BD000010B50446DE
:1018E0002622002128F0BBFC2046FFF77BFE0C4B94
:1018F0004FF6FF7223600B4B4FF47F01A36200236E
:10190000A285C4E90C3184F8383084F83930A387D3
:10191000E387A4F84020A4F842206364204610BD69
:10192000FCD0020894B502082DE9F04F04460026C9
:10193000A0469DB014F0F0F9AC4BE66348F8403B8C
:1019400026223146404628F08AFC4046FFF74AFEF0
:10195000A74B4FF6FF772364FF231CAD25F8087DC6
:1019600004F16C0B04F1980A84F866302946584655
:10197000A666FFF7ADFC04F1C40929465046ADF850
:101980006870FFF7A5FC4846FFF7A8FF994B29466A
:10199000C4F8C43004F588731846C4F80C61089381
:1019A000ADF86870FFF794FC04F59E73294618465D
:1019B0000993ADF86870FFF78BFC04F5B473184613
:1019C0001293FFF703FB04F52773294618460A9381
:1019D000ADF86870FFF77CFC04F5327329461846B1
:1019E0000B93ADF86870FFF773FC04F53D73184670
:1019F0000193FFF773FF04F54F7318460293FFF747
:101A00006DFF04F5617318460393FFF767FF04F554
:101A1000737318460493FFF761FF04F214431846EA
:101A20001393FFF745FA04F5B663294618460C935D
:101A3000ADF86870FFF74CFC04F2DC5329461846F9
:101A40000D93ADF86870FFF743FC04F5C1632946B8
:101A500018460E93ADF86870FFF73AFC04F2346351
:101A6000294618460F93ADF86870FFF731FC04F56E
:101A7000CC63294618461093ADF86870FFF728FC30
:101A800004F28C6318460593FFF728FF04F2D46331
:101A9000294618461193ADF86870FFF719FC04F554
:101AA000E06318461493FFF7B1FA04F5F46318469F
:101AB0000693FFF713FF504BC4F8E867C4F8A0374C
:101AC000009304F5FE631846C4F8EC670793FFF72C
:101AD00005FF009B2946C4F8F03704F50463184657
:101AE000C4F83868C4F83C680093ADF86870FFF734
:101AF000EFFB424B3246C4F840384FF0FF33C4F896
:101B0000703801234046A4F874383146C4F86C6834
:101B100084F8766884F8776884F878681593FFF716
:101B2000C9FB40464FF44871FFF795F940464FF422
:101B3000F071FFF792F94FF07F42271D4146A266F0
:101B400038460EF02BFF6FF0050258463146FFF77E
:101B5000B1FB159B58462946ADF8683010F0A9FF37
:101B6000594638460EF01AFF4FF493725046F8214A
:101B7000FFF7A0FB162350462946ADF8683010F059
:101B800098FF514638460EF009FFDC224FF497715A
:101B90004846FFF78FFB4FF0FF33C4F8F430D4F81A
:101BA000C430A4F8F8600DF15808D3F884304946E1
:101BB0004046DFF860A0984798E8070004F5807376
:101BC00083E80700DAF8003004F67C0B2BB96021BB
:101BD0000B4B0C4A0C4828F0B9FA0C4B1B880C2B09
:101BE0001AD80B4B074A6121F4E700BF1CB8020862
:101BF0008CD1020838B60208C8B6020880D00208A4
:101C000053B7020883B8020895B70208784925201F
:101C1000D6B7020874492520DE4B0C21186800F065
:101C2000FDFDDD4A03460421584615F022FD4846D5
:101C3000C4F80CB110F088FC4FF00D02DFF85CB373
:101C400048462946ADF86C20CDF868B010F09CFCF1
:101C5000494638460EF0A2FE324640F299210898D5
:101C6000FFF728FB0E2329460898ADF8683010F0DE
:101C700020FF089938460EF091FE32463146099809
:101C8000FFF718FB0F234FF00A0929460998ADF812
:101C9000683010F00EFF099938460EF07FFE2F22B3
:101CA0004FF4F0711298FFF705FB129938460EF0C9
:101CB00075FE6FF0270287210A98FFF7FBFA294685
:101CC0000A98ADF8689010F0F4FE0A9938460EF0C4
:101CD00065FE4FF4E17231460B98FFF7EBFA1123E2
:101CE00029460B98ADF8683010F0E3FE0B993846A2
:101CF0000EF054FE6FF00102B5210198FFF7DAFAF9
:101D00004FF0FF314046C4F82413A4F8286301992A
:101D100010F0A0F998E8070004F54C7383E8070079
:101D20000B2329460198ADF86C30CDF868B010F05F
:101D30002BFC019938460EF031FE6FF001024FF492
:101D4000B6710298FFF7B6FA4FF0FF314046C4F87B
:101D50006C13A4F87063029910F07CF998E80700FE
:101D600004F55E7383E8070029460298ADF86C908D
:101D7000CDF868B010F008FC029938460EF00EFE5F
:101D80006FF0010240F22B210398FFF793FA4FF016
:101D9000FF314046C4F8B413A4F8B863039910F0B7
:101DA00059F998E8070004F5707383E807004FF0CD
:101DB00009010398ADF86C102946CDF868B010F011
:101DC000E3FB039938460EF0E9FDF12240F29B1146
:101DD0000498FFF76FFA4FF0FF300499C4F8FC0342
:101DE000A4F80064404610F035F998E8070004F5BF
:101DF000816383E807004FF008002946ADF86C00C6
:101E00000498CDF868B010F0BFFB049938460EF086
:101E1000C5FD912230211398FFF74CFA13993846EB
:101E20000EF0BCFD582240F2BF210C98FFF742FA99
:101E300007234FF0060929460C98ADF86830019346
:101E400010F037FE0C9938460EF0A8FD582240F2EB
:101E5000BF210D98FFF72EFA29460D98ADF868902E
:101E600010F027FE0D9938460EF098FD019B40F2C8
:101E7000A7211A460E98FFF71DFA142329460E983B
:101E8000ADF8683010F015FE0E9938460EF086FD5C
:101E900040F20F124FF430710F98FFF70BFA4FF02A
:101EA00009010F98ADF86810294610F002FE0F994D
:101EB00038460EF073FD40F20F124FF43071109857
:101EC000FFF7F8F94FF008002946ADF868001098C0
:101ED00010F0EFFD109938460EF060FD4FF4997246
:101EE00040F265110598FFF7E5F94FF0FF314046E4
:101EF000C4F8BC16A4F8C066059910F0ABF898E8D1
:101F0000070004F5D96383E8070029460598CDF852
:101F100068B0ADF86C9010F037FB059938460EF0BC
:101F20003DFD4FF4987240F241111198FFF7C2F94C
:101F30004FF00D0229461198ADF8682010F0B9FD58
:101F4000119938460EF02AFD40F25D124FF40D71E2
:101F50001498FFF7AFF9149938460EF01FFD40F2C0
:101F6000931240F231110698FFF7A4F94FF0FF32B7
:101F7000DAF80030C4F8D027A4F8D467C4F8DC67D6
:101F8000C4F8E027C4F8E46704F68408002B3FF4A3
:101F90001EAE05E08049252050B7020894B502081E
:101FA000554A1388022B7FF61CAE544B0221186849
:101FB00000F034FC524A03460421404615F059FB18
:101FC000DAF80030C4F8E88704F68C08002B3FF4F8
:101FD000FEAD494A1388002B3FF403AE474B314610
:101FE000186800F01BFC464A03460321404615F0E2
:101FF00040FB0698C4F8EC8710F0A6FA05232946A2
:102000000698ADF86C30CDF868B010F0BDFA0699BE
:1020100038460EF0C3FC40F2311140F271120798BD
:10202000FFF748F94FF0FF31DAF80030C4F8201814
:10203000A4F82468C4F82C68C4F83018C4F83468CC
:1020400004F69205002B3FF4C2AD2B4E3388032BD0
:102050007FF6C7AD294B0321186800F0DFFB284A43
:1020600003460421284615F004FBDAF80030C4F8D2
:10207000385804F69A05002B3FF4A9AD3388012B9C
:102080007FF6AFAD1D4B0121186800F0C7FB1C4A5D
:1020900003460421284615F0ECFA0798C4F83C588A
:1020A00010F052FA04231AA90798ADF86C30CDF855
:1020B00068B010F069FA079938460EF06FFC009886
:1020C000B52240F2BF21FFF7F5F813220098122144
:1020D0000FF0C4FE009878210FF0D3FE0123009882
:1020E0001A4600210FF012FE384600990EF056FCF9
:1020F00020461DB0BDE8F08F784925208049252075
:1021000050B702087047704770474160704770478A
:1021100001230372704770477047034610B4C468C8
:1021200041686210E40701EB02009B6848BF8A58CF
:102130005DF8044B48BFD358184743682BB18368F8
:102140002BB9C06800F001007047184670470120A5
:10215000704710B504460C2127F0ECFF204610BD57
:1021600010B504464FF4AE7127F0E4FF204610BDD1
:1021700010B50446102127F0DDFF204610BD10B534
:1021800012F0D6F9BDE810400368DB6B1847000079
:10219000F8B50446002517460E4612F0D5FA104B46
:1021A000C4F83C511C600F4BC4F8405123600E4BE7
:1021B000C4F84851C4F844310C4BC4F84C51186869
:1021C000C4F85051C4F85471C4F8586103682946E2
:1021D0009B689847284600F0E7FA2046F8BD00BF04
:1021E00070492520DCB80208C4B80208244925201B
:1021F000064BC0F84801C0F84C310023C0F85031FC
:1022000000F5A273C0F84031704700BF55230008A5
:102210002DE9F047074690689946036888461B6A8F
:102220001546DDF820A0984740F6A303984205D84C
:10223000A321424B424A434827F088FF686803685D
:102240001B6A98470F2803D83F4B3D4AA421F2E769
:10225000E86803681B6A98470B2803D83B4B384A49
:10226000A521E8E712F064F9043012F09FF9D9F8DB
:10227000000010B10368DB689847D9F8000010B17E
:1022800003681B689847386810B103685B69984712
:10229000D8F8000010B103685B689847386810B13F
:1022A00003681B689847D8F8000010B103689B6862
:1022B0009847E868002103685B6A9847044620B1A4
:1022C000002343600372224B0360A8680021036867
:1022D0005B6A9847064608B1FEF7E2FE686800218F
:1022E00003685B6A9847054610B13146FEF7B0FEB9
:1022F000C9F80040C8F800503E60E5B12B1DCAF88F
:102300000030C5F808A03368F5633046DB689847AD
:102310002B6828461B6898472146304613F0A8FED4
:10232000236820461B699847236820465B699847C5
:102330002846BDE8F0872B46E1E700BF4CB902080C
:1023400061BB0208DAB902081BBA0208BEBA020869
:1023500030B9020807B5D0F8583100F59E710093E6
:10236000D0F85421034B0448FFF752FF03B05DF847
:1023700004FB00BF644925206049252013B50022D5
:1023800049B102AB019203F8052D0268946801AAD5
:10239000A04702B010BD0846FBE7C0897047008A1D
:1023A0007047C088704780887047807A00F07F004F
:1023B0007047807AC0097047406A7047806A7047EA
:1023C00070478B88C069DB0A0A6850F82300104404
:1023D000704710B5C2B1137BB3B1547BD27A2402DB
:1023E00004F4E0641443026A98B202EB8402138896
:1023F0008B4202D192F9020010BD05D8013880B29B
:1024000004320028F3D1F7E70020F5E710B50446C1
:102410002C2127F08FFE204610BD000030B5044669
:102420008BB0BDF860500895BDF85C5007959DF8DD
:10243000505006959DF84C5005959DF848500495D0
:102440009DF8445003959DF8405002959DF83C50EE
:102450000195BDF83850009513F0D8F92046064B89
:102460002360159BE361169B2362199B63621A9B91
:10247000A3620BB030BD00BF70BC02087047000003
:1024800030B5144C8FB0236813F001031FD1124AEA
:102490000221CDE90B323F220992104A0A93089299
:1024A0000F4A012507920322CDE90133CDE9052129
:1024B0003C2304220093CDE903254A235E220949E7
:1024C0000948FFF7ABFF0948256027F05DFE064885
:1024D0000FB030BDE429232000C1020830F8020803
:1024E000B4FA0208C8FA0208E82923207D2400086B
:1024F0007047000030B5134C8FB0236813F0010310
:102500001DD1114A0A93CDE90B323F2209920F4A9D
:10251000059308920E4A0125CDE90632CDE9013333
:1025200004222323CDE90325009302222423094911
:102530000948FFF773FF0948256027F025FE064884
:102540000FB030BD142A232000C10208C4FA0208CB
:10255000B8FA0208ECFF0208182A2320F124000828
:102560007047000030B5134D8FB02B6813F0010396
:102570001CD13F220992104A012408920F4ACDE94A
:102580000B33079204220A93CDE9023201930A2306
:10259000CDE90544009304940C235E2208490948C0
:1025A000FFF73CFF08482C6027F0EEFD05480FB010
:1025B00030BD00BF442A2320FCF70208BCFA020801
:1025C00008000308482A23206125000870470000FE
:1025D00030B5134D8FB02B6813F001031DD1114A94
:1025E0000124CDE90B323F2209920F4A0A93089247
:1025F0000E4A019307920422CDE902321723CDE956
:102600000544009304941B23602209490948FFF7FD
:1026100005FF09482C6027F0B7FD06480FB030BD14
:10262000742A232000C102088CF90208C0FA0208AB
:1026300050EA0308782A2320CD250008704710B5FA
:102640000446042127F076FD204610BD08B5032975
:1026500013D8DFE801F002060A0E00F019F800684E
:1026600008BD00F015F84068FAE700F011F880683E
:10267000F6E700F00DF8C068F2E70020F0E7000090
:102680000048704734C10208192070470E20704777
:1026900000487047A42A232010B5FFF799FF064C85
:1026A0002060FFF7EDFE6060FFF75CFFA060FFF7C2
:1026B00021FFE06010BD00BFA42A23200020704746
:1026C000002070470EB403B503AB53F8042B002170
:1026D000019312F0C3FE02B05DF804EB03B0704743
:1026E0000CB407B504AB53F8042B019312F0B6FEFB
:1026F00003B05DF804EB02B07047000010B5436C06
:10270000044673B3038F2BB9C521184B184A1948D7
:1027100027F01CFDC38E00EB43035B8C0BB314F05E
:1027200000FA238F012B03D8134B144ACB21EEE779
:10273000E28E40F63F10531C9BB21946092B88BF0E
:10274000A3F10A0104EB4101498C814209D10A2B12
:1027500028BF002304EB4202508C04EB430358844F
:1027600051842046BDE8104014F0DEB828C30208AA
:1027700055C4020831C3020875C3020883C30208A6
:1027800014F099B810B586B002AC84E806001A4679
:102790000AAB05930193099B21460093089B11F016
:1027A00065FA06B010BD000038B5D8B9114B124813
:1027B0001B681249BBB11A689C681A4402605A68C7
:1027C0001C441A440A606CB100220D4B1A80FFF7BA
:1027D0005FFF0546FFF75AFF0A4B1C600A4B1D605E
:1027E0000A4B188038BD0A4B03600A4B0B600A4B3A
:1027F0001C68E8E7B42A2320B82A2320BC2A232017
:10280000C02A2320744925207C4925207849252089
:10281000A41004084C100408A0100408044B1B6802
:1028200053F82100034B1B6803EB4000704700BFC7
:10283000BC2A2320B82A2320012380F8781080F8AE
:1028400079307047002070474164003118BF012182
:10285000014B1970704700BF2349252000207047A5
:10286000836B0BB10846184770474FF6FF707047EF
:10287000406803689B691847704770479022044B73
:1028800083F8762383F8872383F88423704700BF77
:1028900000E100E0094A0A49D3680A48C3F30A0381
:1028A000013B9BB20B801169C1F30A010139018020
:1028B0001364536B43F00103536370470068014096
:1028C000C42A2320C22A2320014B986A704700BFE4
:1028D000846801400122024B996243F8602C7047E2
:1028E0008468014070B504464FF4005115F0C6FAF3
:1028F00023685D6E11F01CFE01462046A847236840
:102900002046D3F88850044AAC46BDE87040002306
:102910004FF00051604700BF0094112010B531B94D
:102920000A4B0B4A40F2D2210A4827F00FFCC0E9BB
:102930000F12003218BF012207490A7002681946B7
:10294000BDE81040D2F88C20104700BF63C50208D4
:102950001DC602089BC502082249252008B5094B5F
:102960001B888B4203D8084B1B88934205D9074B21
:10297000074A9E21074827F0E9FB074B1980074BC0
:102980001A8008BD184925201A49252000C50208CB
:10299000DAC502089BC502081E49252020492520CA
:1029A00015F096B915F0C0B90EF090BA0EF0FFBB55
:1029B00010B504460FF032F823682046BDE81040F9
:1029C000D3F8AC30184790F87A301BB140680368F0
:1029D0001B6818471846704710B590F8784090F873
:1029E00034100C4B8C421A7809D03AB90A490B4A78
:1029F00008881488108001220C801A7010BD002AEB
:102A0000FCD0064A0449148808880C8010800022F3
:102A1000F3E700BF1C4925201A4925201849252025
:102A20004FF48002034BDA6080221A6110221A618F
:102A3000704700BF00E100E04FF480020A4BC3F88A
:102A40008C20BFF34F8FBFF36F8F8022C3F890208D
:102A5000BFF34F8FBFF36F8F1022C3F89020BFF3E7
:102A60004F8FBFF36F8F704700E100E010B5144C3B
:102A7000236823B3134B144A1B6C11888B4213D168
:102A8000124B198808F0AEF9226892F86A300133C7
:102A900082F86A3000F002FA20680EF0BFFFBDE84D
:102AA0001040002000F077BB08F09CF92068036814
:102AB0001B6A9847BDE81040002000F06DBB10BDB8
:102AC0002449252000680140C42A2320C22A23204B
:102AD00003685B6C18470120704703689B6A1847BE
:102AE00040F2EF307047000007B5104B0521D3F8D6
:102AF0008820762042F48022C3F88820D3F88820EA
:102B000002F480220192019A1A6E42F480221A661F
:102B10001A6E22F480221A66002206F09DF87620B2
:102B200003B05DF804EB06F0CBB800BF000C024622
:102B300008B50B280BD8DFE800F01206100A0A0AC5
:102B40000A0808080808012008BD0520FCE7054B15
:102B5000054A6D21054827F0F9FA0020F4E7022024
:102B6000F2E700BF85C6020856C70208A0C60208E1
:102B700008B50A2809D8DFE800F010060E08080892
:102B8000080606060600012008BD054B054A8E21F1
:102B9000054827F0DBFA0020F6E70220F4E700BF43
:102BA00085C60208A0C70208A0C60208F8B50C46F0
:102BB000487FFFF7BDFFA77F05463846FFF7B8FF00
:102BC00006463846FFF7D4FFA38A628BD21A464BDB
:102BD0001A64A18A628B521A9A61A18A228B521AB4
:102BE0001A615863A18AE28A42EA01425A64226960
:102BF000DA636268DA602268207F402A6BD00FD8DF
:102C0000042A62D0202A66D045EA0060364B40F4A0
:102C10000030D861617FA27F914262D0334A41E0A7
:102C2000B2F5807F1AD0B2F5007F21D0802AEBD197
:102C300045EA006040F40030A768D8615E6222690E
:102C40005A613A1DDA623A78A2B1012A2CD0284B97
:102C5000284A4FF48471284827F078FA274A42EA34
:102C60000060D861E2681A625E6222695A6118E007
:102C7000234AF4E7D9697A88501E21F47F42012162
:102C800022F0100242EA0022DA61174BDA6942F0C0
:102C90002002DA61DA699206FCD410229A600029D7
:102CA000BCD0184A1A60F8BDDA69788822F47F42ED
:102CB000217F22F01002013842F01002FF3942EA6F
:102CC000002218BF0121DA61DFE745EA006040F425
:102CD0000030D861C8E745EA006040F40030024B9C
:102CE000F7E740F20122DDE700B0024001020100F7
:102CF0006BC6020818C70208A0C602080A00020034
:102D0000090002000102020010B5887F0C46FFF79F
:102D10002FFF174B5863A18AE28A42EA01425A64A4
:102D20002269DA63628BA18A521A1A642268082A1D
:102D300016D1A18A628B521A9A61A18A628B521AA9
:102D40001A615862217F0B4A42EA0162DA61E26845
:102D50001A6222695A612269DA60074A1A6010BD54
:102D60000022D8611A61E2689A63044AF6E700BF5C
:102D700000B002400900010001020200010203004C
:102D80004FF48002044B0360044BC3F88C20BFF364
:102D90004F8FBFF36F8F7047D0C6020800E100E08D
:102DA00010B50446FFF7ECFF20464FF45A6127F0B8
:102DB000C1F9204610BD0000094B5A6891070ED595
:102DC0001A6892050BD51A6822F400721A60022262
:102DD0009A60044B1B68586803685B691847704722
:102DE00000B002402449252070B5054600262C4637
:102DF000094B0C3068602E726E7244F8203B6022E2
:102E000021460EF04BFF05F55A63E6602434A342D9
:102E1000FBD1284670BD00BFD0C60208012108B50D
:102E2000002208460CF065FD0A4B186028B92821DD
:102E3000094B0A4A0A4827F089F900220421012097
:102E40000CF0FEFD074B186018B9074B034A2C2104
:102E5000F0E708BDCC2A2320EBC702089FC8020870
:102E600034C80208C82A23205DC80208024B4FF06C
:102E7000FF3118680CF08CBDCC2A2320014B186858
:102E80000CF0B4BDCC2A2320024B002118680CF0B2
:102E90007FBD00BFCC2A2320FFF7F0BF00230348EB
:102EA0001A46034900680CF00BBE00BFC82A232055
:102EB00004282320002313B5074C1A4601A92068D3
:102EC0000CF032FE4FF0FF33002201A920680CF015
:102ED0002BFE02B010BD00BFC82A2320012070477E
:102EE0000C2070470C2303FB0100083070470C23B3
:102EF00003FB0100083070470120704740F6A40032
:102F0000704740F6A40303FB01000830704740F609
:102F1000A40303FB01000830704701207047102014
:102F2000704700EB01100830704700EB01100830CB
:102F300070470846FFF75CB910B50446024B0360C2
:102F40000DF014F9204610BD40C9020810B5044622
:102F5000FFF7F2FF2046142127F0ECF8204610BDC1
:102F600010B50446024B03600DF000F9204610BD79
:102F70000CC9020810B50446FFF7F2FF204640F6E0
:102F8000AC0127F0D7F8204610BD000010B504466C
:102F9000024B03600DF0EAF8204610BDD8C80208C5
:102FA00010B50446FFF7F2FF2046182127F0C2F8BB
:102FB000204610BD10B50446074B036000F6D8004C
:102FC000FFF7BAFF04F12C00FFF7CAFF04F1140069
:102FD000FFF7DCFF204610BD74C9020808B502489F
:102FE000FFF7E8FF08BD00BFD42A232010B5044630
:102FF000FFF7E0FF204640F64C2127F09BF82046E3
:1030000010BD00002DE9F341FFF73AFB002405460F
:10301000FFF73AFB2346014622462846009414F067
:10302000CDFB244B244A20461A60244EFFF7BCFBFC
:103030000121234819F056F8224814F027FB336881
:10304000DB0730D4204C214B04F50F6504F114004C
:1030500004F12C0804F6D8076060C4F80880E76023
:10306000256123600DF084F8194B404663610DF033
:103070007FF8184B3846E3620DF07AF8164B04F6E9
:10308000EC00C4F8D838FEF7A3F8224604F6EC01A9
:103090002846FEF7E7F82846FFF7AAF801230F486D
:1030A000336027F071F80E4802B0BDE8F04100F03F
:1030B00052B800BF804925206C432320D02A23200A
:1030C0007043232008282320D42A232074C902080F
:1030D000D8C802080CC9020840C90208DD2F000840
:1030E000C442232025F06ABD01480DF052BF00BF45
:1030F000C4422320F7B50E4D0E4B0F4F0F4E2846FE
:103100003B60FFF771FE304618F0E0FF4FF4487364
:103110004FF4F0720A4CCDE9003229463B46324664
:10312000204614F043FE074B236003B0F0BD00BF00
:103130002435232060CA0208203523207043232031
:10314000C442232088C902080148FFF719BE00BF06
:10315000243523207047FFF7C5BBFFF7B5BBFFF74A
:10316000B9BBFFF721BCFFF721BCFFF787BBFFF717
:1031700057BCFFF761BCFFF78DBBFFF711BCFFF732
:1031800011BC0DF09DBE10B50446A82126F0D2FF5B
:10319000204610BD70477047704770477047000069
:1031A00008B501220821064805F0E2FF112000229F
:1031B000072105F051FDBDE80840112005F080BD54
:1031C0000010024230B587B00D461446002110228F
:1031D00002A827F044F8174B1A7812B9002007B05C
:1031E00030BD00221A70642302AA009382211023AA
:1031F000114804F095FD0028F0D19DF80830482BC7
:10320000ECD19DF80B300D4803F00F029DF80A3009
:1032100043EA02230A4A13609DF80D2002F00F01D1
:103220009DF80C2042EA012202602B600368012015
:103230002360D4E7BC4B232048502520C44B2320D7
:10324000C04B232010B50446042126F073FF20460E
:1032500010BD0000402802BF0122014B1A707047C8
:10326000BC4B232000B589B020220021684626F0FF
:10327000F6FF04221A480023826101221949C0E99D
:103280000233C0E90013C0E90433037780F8243027
:10329000826280F82C30C0E90D3380F840308366BC
:1032A00043640365C36380F8543006F07BFE08B1C5
:1032B00001F009F906230C4A6946CDE900230023F1
:1032C0000A4A0748CDE902320422CDE9042307F077
:1032D0004BF808B101F0F7F809B05DF804FB00BF46
:1032E000184D2520008002420008002E0000FFFF3C
:1032F00000B589B020220021684626F0B0FF0422E4
:103300001A480023826101221949C0E90233C0E949
:103310000013C0E90433037780F82430826280F818
:103320002C30C0E90D3380F8403083664364036578
:10333000C36380F8543006F035FE08B101F0C3F8DD
:1033400006230C4A6946CDE9002300234FF6FF729D
:10335000CDE9023204220548CDE9042307F004F840
:1033600008B101F0B0F809B05DF804FB8C4C2520E1
:10337000008102420100008010B50446C0B0142252
:10338000002103A826F06BFFE022002108A826F008
:1033900066FF2368304A934239D100234FF400423C
:1033A000CDE908234FF4804308A8359307F03CFF8C
:1033B00008B101F088F8294A13680133012B136022
:1033C0000CD1274BD3F88C2042F48062C3F88C20B8
:1033D000D3F88C3003F480630093009B204B03A947
:1033E000D3F88C201F4842F00102C3F88C20D3F898
:1033F0008C30C02203F001030193019B0323CDE92C
:1034000003230023059305F0BBFD40B010BD164A11
:103410009342FAD100234FF40042CDE908234FF440
:10342000804308A8359307F0FFFE08B101F04BF880
:103430000A4A13680133012B1360E6D1084BD3F815
:103440008C2042F48062C3F88C20D3F88C3003F4D3
:1034500080630293029BD8E700800242C84B23207E
:10346000000C0246000002420081024208B54FF4FF
:10347000E1331548154AC0E9002300230C22C0E9B6
:1034800002330361C0E90523C0E90733C0E909330A
:1034900005F0F9F908B101F016F800210A4809F021
:1034A00088FC08B101F00FF80021074809F0A6FCDC
:1034B00008B101F008F8044809F05CFC18B1BDE857
:1034C000084001F000B808BDA44D25200038014097
:1034D00008B54FF4E1331648164A0C21C0E9002321
:1034E00000234FF44072C0E902330361C0E90512C2
:1034F000C0E90733C0E9093305F0C5F908B100F0A8
:10350000E2FF00210A4809F054FC08B100F0DBFF9B
:103510000021074809F072FC08B100F0D4FF04480C
:1035200009F028FC18B1BDE8084000F0CCBF08BD88
:10353000384E25200044004008B54FF4E1331548CB
:10354000154AC0E9002300230C22C0E902330361BD
:10355000C0E90523C0E90733C0E9093305F093F951
:1035600008B100F0B0FF00210A4809F022FC08B1C0
:1035700000F0A9FF0021074809F040FC08B100F065
:10358000A2FF044809F0F6FB18B1BDE8084000F0BE
:103590009ABF08BD604F25200048004008B54FF491
:1035A000E1331548154AC0E9002300230C22C0E985
:1035B00002330361C0E90523C0E90733C0E90933D9
:1035C00005F061F908B100F07EFF00210A4809F01A
:1035D000F0FB08B100F077FF0021074809F00EFC6E
:1035E00008B100F070FF044809F0C4FB18B1BDE851
:1035F000084000F068BF08BDCC4E252000640040A4
:1036000070B50446CAB0142200210DA826F027FE8A
:10361000E022002112A826F022FE2368924A93425B
:1036200048D10122002312A8CDE9122307F0FCFDA6
:1036300008B100F048FF8D4B0226D3F8A4200024E7
:1036400042F48042C3F8A420D3F8A420072502F452
:1036500080420192019AD3F88C200DA942F0020217
:10366000C3F88C20D3F88C20814802F00202029229
:10367000029AD3F88C2042F04002C3F88C20D3F891
:103680008C30CDE90F4403F040030393039B802368
:103690001195CDE90D3605F073FC4FF40073CDE9BB
:1036A0000F44CDE90D36734811950DA905F068FC5E
:1036B0004AB070BD704A934244D10222002312A83E
:1036C000CDE9122307F0B0FD08B100F0FCFE674B16
:1036D0000226D3F89C20002442F40032C3F89C2038
:1036E000D3F89C20072502F400320492049AD3F800
:1036F0008C200DA942F00802C3F88C20D3F88C204E
:103700005E4802F008020592059AD3F88C2042F038
:103710000102C3F88C20D3F88C30CDE90F4403F0BC
:1037200001030693069B30231195CDE90D3605F074
:1037300027FC0923CDE90F44CDE90D3611950DA9DC
:103740004F48B3E74F4A934245D10422002312A8C1
:10375000CDE9122307F068FD08B100F0B4FE434B39
:103760000226D3F89C20002442F48022C3F89C2037
:10377000D3F89C20072502F480220792079AD3F8F9
:103780008C200DA942F00202C3F88C20D3F88C20C3
:10379000374802F002020892089AD3F88C2042F0CF
:1037A0000402C3F88C20D3F88C30CDE90F4403F029
:1037B00004030993099B4FF480631195CDE90D36FD
:1037C00005F0DEFB2023CDE90F44CDE90D36119540
:1037D0000DA92D486AE72D4A93427FF469AF4FF057
:1037E0000052002312A8CDE9122307F01DFD08B1F5
:1037F00000F069FE0225002407261C4B0DA9D3F812
:103800009C20234842F00072C3F89C20D3F89C20EF
:1038100002F000720A920A9AD3F88C2042F0100249
:10382000C3F88C20D3F88C2002F010020B920B9A74
:10383000D3F88C2042F40072C3F88C20D3F88C307B
:10384000CDE90D5503F400730C930C9BCDE90F44A7
:10385000119605F095FB1023CDE90F44CDE90D3508
:1038600011960DA90B4821E700380140000C0246D3
:10387000000402420018024200440040000C0242D0
:10388000000002420048004000080242006400407C
:10389000001002420024024208B51448144B0122D1
:1038A0000360A3F17663A3F57B23A3F21463436063
:1038B0000023C0E90232C0E90433C0E906330362E1
:1038C00004F0D4F908B100F0FEFD0021074805F02E
:1038D0007DF808B100F0F7FD0021044805F0A2F8DA
:1038E00018B1BDE8084000F0EEBD08BD48502520E5
:1038F0000054004008B51448144B01220360A3F1A2
:103900007663A3F57B23A3F6142343600023C0E969
:103910000232C0E90433C0E90633036204F0A6F9B9
:1039200008B100F0D0FD0021074805F04FF808B1BC
:1039300000F0C9FD0021044805F074F818B1BDE895
:10394000084000F0C0BD08BDF44F252000580040DD
:1039500008B51448144B01220360A3F17663A3F564
:103960007E23A3F2146343600023C0E90232C0E95E
:103970000433C0E90633036204F078F908B100F0BB
:10398000A2FD0021074805F021F808B100F09BFDD9
:103990000021044805F046F818B1BDE8084000F0E1
:1039A00092BD08BD9C50252000840040F0B504461F
:1039B000C5B01422002107A826F051FCE022002106
:1039C0000CA826F04CFC2368564A934233D140227F
:1039D00000230CA8CDE90C2307F026FC08B100F069
:1039E00072FD514C4FF4C040D4F88C30002543F0A8
:1039F0004003C4F88C30D4F88C3007A903F040039E
:103A00000193019B1223CDE907030323CDE9095359
:103A1000042346480B9305F0B3FAD4F89C3043F4E2
:103A20000013C4F89C30D4F89C3003F400130293C4
:103A3000029B45B0F0BD3E4A934231D18022002323
:103A40000CA8CDE90C2307F0EFFB08B100F03BFD1B
:103A5000354C3022D4F88C30002143F08003C4F878
:103A60008C30D4F88C30334803F080030393039BED
:103A70001223CDE907230323CDE90913042307A962
:103A80000B9305F07DFAD4F89C3043F48003C4F81E
:103A90009C30D4F89C3003F480030493049BC8E763
:103AA000254A9342C5D14FF4800200230CA8CDE9EA
:103AB0000C2307F0B9FB08B100F005FD1A4C1227E2
:103AC000D4F88C30032543F00203C4F88C30D4F8CA
:103AD0008C30002603F002030593059B4023CDE9BB
:103AE0000737052307A915480B93CDE9096505F0AC
:103AF00047FA4FF4006307A91048CDE90737CDE92D
:103B000009650B9505F03CFAD4F8A03043F00203A8
:103B1000C4F8A030D4F8A03003F002030693069B4B
:103B200087E700BF00540040000C02460018024224
:103B300000580040001C0242008400400004024281
:103B4000034B1A7812B100221A7070470122FBE76A
:103B50000D53252008B5054B4FF4FA7118680BF08A
:103B6000ADFE01200BF042FEFBE700BFF450252024
:103B7000704770477047000008B500220A4B0121CA
:103B80000A480BF043FE0A4B0A4A186000210A4813
:103B90000BF0E0FD094B0A4A1860002109480BF0C0
:103BA000D9FD094B186008BD70CA0208413B0008E6
:103BB000F4502520A4CA0208553B0008F8502520DF
:103BC00080CA02085DD90008F050252008B50548D4
:103BD000054B036005F0B2F818B1BDE8084000F0ED
:103BE00072BC08BDFC50252000F0024007B5194BFF
:103BF00002689A422BD1184B0521D3F888208420E3
:103C000042F48012C3F88820D3F8882002F480128E
:103C10000092009AD3F8882042F40012C3F888205A
:103C2000D3F88830002203F400130193019B05F0C0
:103C300013F8842005F044F800220521852005F0C2
:103C40000BF8852003B05DF804EB05F039B803B03C
:103C50005DF804FB00F00240000C02461C2210B587
:103C600000249AB000210DEB020026F0F8FA14228D
:103C7000002102A826F0F3FA302221460EA8019472
:103C800026F0EDFA29482A4B7F22C0E90034FF23B1
:103C9000C0E902234FF40013C0E904344FF080431D
:103CA0008461C0E90734446204F038F908B100F0D7
:103CB0000AFC07A91D480794CDE90A440C9401F0B9
:103CC0004BFE08B100F0FFFB0023012202A91748B8
:103CD000ADF808308DF80A30CDE9053304F07EF9EF
:103CE00008B100F0F0FB134B1AA941F8643D012222
:103CF0000E4804F0DFF908B100F0E5FB00230122D3
:103D0000ADF838308DF83A300F93CDE91333169370
:103D10004FF480730EA905488DF85C20199304F0C8
:103D200015FA08B100F0CFFB1AB010BD08512520DC
:103D3000007800460101010010B50446C0B014220D
:103D4000002103A826F08BFAE022002108A826F023
:103D500086FA2268214B9A423ED100234FF48022FA
:103D6000CDE908234FF4807308A83C9307F05CFA70
:103D700008B100F0A8FB1A4B03A9D3F8F0201948AA
:103D800042F40042C3F8F020D3F8A82042F4001215
:103D9000C3F8A820D3F8A82002F400120192019AD7
:103DA000D3F8D82042F40012C3F8D820D3F88C20DE
:103DB00042F00402C3F88C20D3F88C304FF4005248
:103DC00003F004030293029B0223CDE903230023A3
:103DD000CDE9053305F0D4F840B010BD00780046B9
:103DE000000C0246000802421FB54FF480031A4837
:103DF0001A4A0024C0E900230323C0E903344FF02A
:103E00008063C0E906340723C3624FF08043CDE9E5
:103E10000144039484604461C0E908448462C0E9B9
:103E20000D34C463C0E91244C0E91444C0E9164427
:103E3000046609F0E7FA08B100F045FB4FF0805343
:103E400001A905480194CDE9023404F098FD08B1B8
:103E500000F039FB04B010BDC851252000300140EE
:103E60001FB54FF480031A481A4A0024C0E9002302
:103E70000323C0E903344FF08063C0E9063407230D
:103E8000C3624FF08043CDE90144039484604461F0
:103E9000C0E908448462C0E90D34C463C0E9124437
:103EA000C0E91444C0E91644046609F0ABFA08B14D
:103EB00000F009FB4FF0805301A905480194CDE9BA
:103EC000023404F05CFD08B100F0FDFA04B010BD4E
:103ED0003851252000380040142210B50446C2B0E5
:103EE00000210DEB020026F0BAF9E02200210AA819
:103EF00026F0B5F92368384A934236D100234FF4AF
:103F00000002CDE90A234FF480130AA83B9307F07F
:103F10008BF908B100F0D7FA304B1C20D3F8A4205D
:103F2000002442F48052C3F8A420D3F8A42005A9A9
:103F300002F480520192019AD3F88C2042F04002A0
:103F4000C3F88C20D3F88C3003F040030293029B1B
:103F50000223CDE905030323CDE9074305232048C8
:103F6000099305F00DF842B010BD1E4A9342FAD1F4
:103F700000234FF08072CDE90A234FF480330AA862
:103F80003C9307F051F908B100F09DFA134B002162
:103F9000D3F89C20144842F48042C3F89C20D3F804
:103FA0009C2002F480420392039AD3F88C2042F4BE
:103FB0008072C3F88C20D3F88C300E2203F4807307
:103FC0000493049B0223CDE905230323CDE90713C2
:103FD000052305A90993C4E700300140000C0246FF
:103FE00000180242003800400020024210B50122B1
:103FF00002210A241A481B4BC0E90542C0E90031DE
:104000000D240023C0E90741C0E90233037443745F
:104010008374C0E90922C0E90B22C0E90D33C363F0
:1040200008F012FF08B100F04EFA01220C481146C8
:1040300009F0BCF8002301220B490948C1E900330B
:104040008B60C1E9032340F2FF734B6108F0ECFF82
:1040500008B100F038FABDE81040014809F00CB88A
:104060007852252000A400405C52252010B504465B
:10407000C0B01422002103A826F0F1F8E0220021AC
:1040800008A826F0ECF82268214B9A423DD1002383
:104090004FF00062CDE908234FF0807308A82C93FD
:1040A00007F0C2F808B100F00EFA1A4B0024D3F85A
:1040B000A02003A942F40072C3F8A020D3F8A020E6
:1040C000154802F400720192019AD3F88C2042F054
:1040D0000202C3F88C20D3F88C304FF4407203F006
:1040E00002030293029B0223CDE903230323CDE9BC
:1040F00005430923079304F043FF272022460521A7
:1041000004F0AAFD272004F0DBFD40B010BD00BF85
:1041100000A40040000C02460004024210B5002436
:104120008EB03022002102A826F099F81848194BC9
:104130000194036004F0B0F808B100F0C4F9022261
:10414000012302A9CDE907231148002202948DF82A
:1041500010408DF81140CDE90544099404F0B0F801
:1041600008B100F0B0F900230EA941F8343D084829
:1041700001F0D9FB08B100F0A6F9102202A9044809
:1041800004F09EF808B100F09EF90EB010BD00BF1B
:10419000445325200018024610B50446C0B014222E
:1041A000002103A826F05BF8E022002108A826F0F1
:1041B00056F822681B4B9A4232D100231A4A4FF418
:1041C0008041CDE908234FF4004308A8CDE9351319
:1041D00007F02AF808B100F076F9144B03A9D3F8D8
:1041E0009420134842F04002C3F89420D3F894205E
:1041F00002F040020192019AD3F88C2042F00102B1
:10420000C3F88C20D3F88C30302203F001030293E2
:10421000029B0323CDE903230023059304F0B0FEA2
:1042200040B010BD0018024600800010000C02468D
:104230000000024270B51F4B88B0D3F89C2069463D
:1042400042F00102C3F89C20D3F89C30064603F0EC
:104250000103019302A8019B02F0ACFA02F07AFA82
:104260004FF08043144C236040F2E733E360134B7C
:10427000B0FBF3F000230138606020462361A360A7
:1042800002F08AFE054668B9204602F087FC054622
:1042900040B90F2E0CD8024631462D2004F0DCFC2C
:1042A000074B1E602D2004F00BFD284608B070BDA2
:1042B0000125F7E7000C02465853252040420F0025
:1042C0001C28232008B500230448036004F006FDE1
:1042D00018B1BDE8084000F0F6B808BDA453252089
:1042E000074B82B0D3F88C2042F40032C3F88C2004
:1042F000D3F88C3003F400330193019B02B0704774
:10430000000C024670B59EB06022002106A825F080
:10431000A6FF18220021684625F0A1FF4FF4403087
:1043200001F05CFA044608B172B6FEE706F0A0FDA3
:10433000234A8121D2F8F030102523F01803C2F867
:10434000F0302F224FF4A023CDE906234FF48073E1
:10435000CDE908134FF4805311934FF08063032687
:10436000CDE90A534FF0500C02230425082206A879
:104370000C94CDE9143617941695CDE918C2CDE901
:104380001A33CDE91C4401F077FD08B172B6FEE79F
:104390001F23CDE90200CDE9040029466846CDE996
:1043A000003601F001FC024608B172B6FEE74FF09C
:1043B000807101F049FB08F0B1FC1EB070BD00BF78
:1043C000000C024607B506F00BFEFFF79BFF01F05D
:1043D00079FA00236846CDE9003306F051FD06F076
:1043E00099FD01F07FFA022001F040FA044608B17D
:1043F00072B6FEE700F06AF8FEF734FF00F066FAE6
:1044000001F072F800F0F6F900F006FA00F07CFB1B
:10441000FFF7ECFDFFF7DAFBFFF754FFFFF73CFA7D
:10442000FFF768FA00F056FD01F08CF800F08CFC04
:1044300000F0A6FBFFF712FC00F047F8FEF758FF6C
:1044400001F082F9FFF76AFEFFF782FA00F05EF9E9
:10445000FFF7CAFCFFF704FD00F0E4FE00F04AFDA0
:1044600000F03CFF00F09EFD00F074FF00F0CEFF76
:10447000FEF7FCFFFFF72CF8FFF75EF8FFF78EF86A
:1044800009F065FA09F062FA2146094803F09CFA3E
:1044900008B172B6FEE701228021064804F068FEEA
:1044A0000BF022F9FFF768FB0BF034F9FEE700BFD1
:1044B00024562520001C02420368B3F1804F01D12D
:1044C00006F0B6BD704772B6FEE770472DE9F04FB3
:1044D00091B0142200210BA825F0C1FE824BDFF819
:1044E0001CB2D3F88C20814F42F01002C3F88C200C
:1044F000D3F88C20584602F010020192019AD3F8AA
:104500008C20DFF8FCA142F00202C3F88C20D3F823
:104510008C20802102F002020292029AD3F88C20B1
:10452000DFF8E09142F04002C3F88C20D3F88C20F1
:10453000002402F040020392039AD3F88C20022553
:1045400042F00802C3F88C20D3F88C20DFF8B88141
:1045500002F008020492049AD3F88C20012642F05B
:104560000402C3F88C20D3F88C2002F004020592D8
:10457000059AD3F88C2042F00102C3F88C20D3F8BE
:104580008C2002F001020692069AD3F88C2042F0A9
:104590008002C3F88C20D3F88C2002F080020792AE
:1045A000079AD3F88C2042F48072C3F88C20D3F899
:1045B0008C2002F480720892089AD3F88C2042F47E
:1045C0000072C3F88C20D3F88C2002F40072099298
:1045D000099AD3F88C2042F02002C3F88C20D3F83B
:1045E0008C30002203F020030A930A9B04F0C0FDE4
:1045F00038460022082104F0BBFD504600224FF44B
:10460000817104F0B5FD00224846102104F0B0FD90
:104610004FF480730BA94046CDE90B35CDE90D452C
:104620000F9404F0ADFC80230BA95846CDE90B365E
:104630004FF0030BCDE90D4404F0A2FC4FF4C0533E
:104640000BA94046CDE90B350D94CDF838B004F0F8
:1046500097FC08230BA93846CDE90B36CDE90D545C
:1046600004F08EFC4FF48063CDE90B350A230BA9CF
:1046700040460F93CDE90D4B04F082FC40221C4BC9
:104680000BA93846CDE90B230D9604F079FC4FF4C5
:10469000817310270BA95046CDE90B36CDE90D44A7
:1046A00004F06EFC0BA91348CDE90B640D9404F0E3
:1046B00067FC0BA94846CDE90B76CDE90D5404F013
:1046C0005FFC0BA90C48CDE90B740D9404F058FC69
:1046D00022460521112004F0BFFA112004F0F0FA5F
:1046E00011B0BDE8F08F00BF000C0246001002427E
:1046F000000021100024024200080242001C024275
:1047000000180242001402420000024208B50023D1
:104710000C480D4AC0E90233C0E900234FF6FF728E
:104720004261C0E908234FF400020361C0E90A2393
:10473000C0E90C3305F03EFB18B1BDE80840FFF7B7
:10474000C2BE08BDE85325200094004030B50446A1
:10475000C1B01422002103A825F081FDE022002130
:1047600008A825F07CFD22681F4B9A423AD14FF4ED
:104770008062002308A8CDE9082306F055FD08B1A2
:10478000FFF7A1FE194B0224D3F8A020002542F028
:104790002002C3F8A020D3F8A02003A902F0200231
:1047A0000192019AD3F88C20114842F00202C3F81A
:1047B0008C20D3F88C30CDE9034403F0020302933C
:1047C000029B0E23CDE90555079304F0D9FB4FF466
:1047D000004303A90648CDE90334CDE90555079404
:1047E00004F0CEFB41B030BD00940040000C024606
:1047F0000004024208B500230548064AC0E9002328
:1048000004F0E6FA18B1BDE80840FFF75CBE08BD49
:10481000645425200014034008B500230548064AC7
:10482000C0E9002304F0D4FA18B1BDE80840FFF74E
:104830004ABE08BD38542520001803400368124AB8
:1048400082B093420ED1114BD3F8882042F08042BF
:10485000C3F88820D3F8883003F080430093009B8E
:1048600002B070470A4A9342FAD1084BD3F8882025
:1048700042F40012C3F88820D3F8883003F4001300
:104880000193019BECE700BF00140340000C0246BB
:104890000018034007B50C4BD3F8942042F00402F3
:1048A000C3F89420D3F8943003F004030193019BE0
:1048B00001F010F800220F216FF0010003B05DF845
:1048C00004EB04F0C9B900BF000C02461248134BB8
:1048D00010B504220024036001230473836080F870
:1048E0002430C0E90A44C0E90C2304F0E7F808B119
:1048F000FFF7E9FD40210222094BC3E90044C3E967
:104900000212C3E919445C611C7683F8204083F8E5
:104910003440DC6610BD00BF0C55252080400246A7
:104920009054252070B50446C0B01422002103A87D
:1049300025F095FCE022002108A825F090FC2268D3
:10494000254B9A4246D14FF40032002308A8CDE906
:10495000082306F069FC08B1FFF7B5FD1F4B0226DE
:10496000D3F89420002442F48062C3F89420D3F852
:104970009420032502F480620092009AD3F88C20E0
:1049800003A942F00202C3F88C20D3F88C2014480B
:1049900002F002020192019AD3F88C2042F0200228
:1049A000C3F88C20D3F88C30CDE9054403F0200304
:1049B0000293029B10230795CDE9033604F0E0FA39
:1049C000082303A90748CDE90336CDE90544079537
:1049D00004F0D6FA40B070BD80400246000C02469A
:1049E0000004024200140242FEE7FEE7FEE7FEE793
:1049F000FEE77047402004F0C1BB0000000000004B
:104A000010B52B4B2B4A40212B4808F04BFB08B12B
:104A1000FFF759FD274B1B68C22B3FD006D8C12B8F
:104A200035D0BDE81040244808F03CBC234A9342EE
:104A300007D0234A9342F4D11D4B1A78214B1A70A8
:104A4000EFE71B4C6378207840EA03201E4B00B24E
:104A50001880FBF77FFD14A3D3E90023FBF7E4FDE7
:104A6000FCF714F8194B1860E378A07840EA0320AB
:104A7000174B00B21880FBF76DFD0BA3D3E90023A1
:104A8000FBF7D2FDFCF702F8124B1860C9E7084BA0
:104A90001B78012BC5D1064B5A78CFE7044B1B7806
:104AA000022BF7E7AFF300807B14AE47E17A843F37
:104AB0003C532520E052252078522520C153FF1079
:104AC000B003FF1858522520505525200C282320CC
:104AD0005255252010282320014802F0BFB800BFFE
:104AE00058532520014804F045B900BFFC5025204B
:104AF000014804F052B900BFFC502520014806F0DF
:104B0000E7B800BF1058252008B500230E480F4A0B
:104B1000C0E91033C0E91233C0E91433C0E90023FF
:104B2000C0E90233C0E9063304F088F908B1FFF7A1
:104B3000CAFC0121044804F0C1F918B1BDE80840DD
:104B4000FFF7C1BC08BD00BF5455252000B002408E
:104B50000268094B82B09A420CD1084BD3F88820E6
:104B600042F48022C3F88820D3F8883003F48023ED
:104B70000193019B02B0704700B00240000C024656
:104B800008B500230548064AC0E9002306F0CAF923
:104B900018B1BDE80840FFF796BC08BDB455252004
:104BA00000080C4210B50446BAB0E022002102A869
:104BB00025F055FB22680E4B9A4217D14FF4002284
:104BC000002302A8CDE9022306F02EFB08B1FFF76F
:104BD0007AFC084BD3F88C2042F48022C3F88C2056
:104BE000D3F88C3003F480230193019B3AB010BDBD
:104BF00000080C42000C02461422F0B50446C3B073
:104C000000210DEB020025F02AFBE02200210AA87A
:104C100025F025FB2268424B9A427FD14FF08062FB
:104C200000230AA8CDE90A2306F0FEFA08B1FFF72F
:104C30004AFC3C4B0324D3F88C20022642F4001299
:104C4000C3F88C20D3F88C20002502F400120092C7
:104C5000009AD3F8902005A942F01002C3F89020E2
:104C6000D3F89020304802F010020192019AD3F854
:104C70008C200A2742F02002C3F88C20D3F88C2025
:104C800002F020020292029AD3F88C2042F0040231
:104C9000C3F88C20D3F88C2002F004020392039A0C
:104CA000D3F88C2042F00102C3F88C20D3F88C306A
:104CB000CDE9075403F001030493049B4FF4806390
:104CC0000994CDE9053604F05BF94FF4707305A93A
:104CD0001548CDE90536CDE90754099704F050F998
:104CE0000E2305A91148CDE90536CDE907540997EA
:104CF00004F046F9062305A90D48CDE90536CDE9AE
:104D00000754099704F03CF9012305A90748CDE9A8
:104D10000536CDE90754099404F032F943B0F0BDEB
:104D200000140D42000C0246001402420008024228
:104D300000000242012208B511460AF0C6FF003009
:104D400018BF012008BD000030B5002495B018221E
:104D5000002105A825F083FA0BA8CDE903440AF049
:104D60002DFF042359485A4A4FF08071C0E90023AF
:104D70002023C0E903130223C0E90534C0E9093444
:104D80004FF08053C0E90B3408238460C0E9074426
:104D9000C0E90D34C46304F001FB08B1FFF793FBD5
:104DA0000123CDE9053307934FF0011341F2883217
:104DB000089305A903F57F034448099304F01EFDF9
:104DC00008B1FFF780FB002303A94048CDE9033376
:104DD00004F0AAFF08B1FFF776FB00223B4811461A
:104DE0000BF01AF90246002838D1014637480BF07B
:104DF00042F9024690BB012134480BF00DF90246FE
:104E000060BB012131480BF036F938BB01222F4835
:104E100011460BF001F908BB01222C4811460BF09A
:104E20002AF9D8B9642006F015F90022274811465E
:104E30000AF0DDFE08B1FFF746FB002223481146C9
:104E40000AF0A9FF024660B1FFF73DFB1F48FFF7DC
:104E500071FF08B1FFF737FB15B030BDFFF733FB2B
:104E6000E3E707230146009318484FF440730BF023
:104E700011F802460028E7D1014614480AF08BFFDA
:104E800003460028E0D101240246014600940F4861
:104E90000BF000F805460028D6D1282006F0DAF8F5
:104EA0002A46214609480AF0A2FE03460028CBD133
:104EB00002AA00922146024604480BF048F8002856
:104EC000C2D19DF80830A342BED1BFE7C855252006
:104ED00000140D4208B5002008F06CFC08B1FFF783
:104EE000F2FA08F077FC18B1BDE80840FFF7EBBA1A
:104EF00008BD000030B58DB01422002107A825F0B0
:104F0000AEF91022002103A825F0A9F900232348B7
:104F1000234ACDE90033C0E900234FF0FF3202936A
:104F20008360C0E90323836102F0C6F808B1FFF78C
:104F3000CAFA0421602300240225CDE9071317488B
:104F400007A9CDE909540B9402F04EFC08B1FFF714
:104F5000BAFA002203A91148CDE90345CDE9054479
:104F600002F05AFA08B1FFF7AEFA0222012303A9B0
:104F7000CDE903230948042202F04EFA08B1FFF7F5
:104F8000A2FA0023694605480093029308F0EAFA62
:104F900008B1FFF798FA0DB030BD00BF08572520C3
:104FA000000400401FB500240D480E4BCDE901441C
:104FB000C0E900344FF6FF7303948460C3608461DA
:104FC00001F0EAFF08B1FFF77EFA01A90448019455
:104FD000039408F0C7FA08B1FFF775FA04B010BDE2
:104FE00070562520001000400368124A82B0934298
:104FF0000ED1114BD3F8A42042F40062C3F8A420D0
:10500000D3F8A43003F400630093009B02B0704710
:105010000A4A9342FAD1084BD3F8A42042F4005232
:10502000C3F8A420D3F8A43003F400530193019BE8
:10503000ECE700BF002C0140000C024600340140A8
:1050400010B5044688B01422002103A825F007F902
:105050002268134B9A4221D1124B03A9D3F89C200A
:10506000114842F00202C3F89C20D3F89C2002F0C1
:1050700002020192019AD3F88C2042F00402C3F894
:105080008C20D3F88C30802203F004030293029B1F
:105090000223CDE90323079303F072FF08B010BD8C
:1050A00000040040000C0246000802420268094B5E
:1050B00082B09A420CD1084BD3F89C2042F00802EF
:1050C000C3F89C20D3F89C3003F008030193019BA4
:1050D00002B07047000C0040000C02460368124A00
:1050E00082B093420ED1114BD3F89C2042F01002B3
:1050F000C3F89C20D3F89C3003F010030093009B6E
:1051000002B070470A4A9342FAD1084BD3F8A42060
:1051100042F48032C3F8A420D3F8A43003F48033DF
:105120000193019BECE700BF00100040000C024619
:1051300000400140142210B504468AB00DEB020075
:10514000002125F08CF823682F4A934214D12F4B6D
:10515000D3F88C2042F00202C3F88C20D3F88C30B4
:10516000022203F002030193019B0123CDE90532E2
:10517000099305A9264816E0264A934217D1234BE6
:105180000120D3F88C2042F48072C3F88C20D3F82D
:105190008C3003F480730293029B0223CDE9050354
:1051A0001D48099305A903F0EBFE0AB010BD1B4A88
:1051B000934212D1154B4021D3F88C2042F48072D7
:1051C000C3F88C20D3F88C3003F480730393039BD3
:1051D0000223CDE905130323E2E7114A9342E4D108
:1051E0000A4BD3F88C2042F00202C3F88C20D3F88B
:1051F0008C304FF4804203F002030493049B02239B
:10520000CDE905230E23B3E7002C0140000C024634
:1052100000040242000C0040002002420034014021
:105220000040014010B5002498B01C22214604A87B
:10523000CDE90144039425F012F8342221460BA84D
:1052400025F00DF82348244B8460C0E900344FF664
:10525000FF73C0E90544C0E9033401F0CDFE08B195
:10526000FFF731F901A91B48CDE90144039408F087
:1052700079F908B1FFF727F90024042204A9154899
:10528000CDE90444CDE90644CDE908440A9401F08F
:10529000A7FF08B1FFF717F94FF40053CDE9103419
:1052A0004FF000730BA90B48CDE90B44CDE90D4439
:1052B0000F94CDE91244CDE91434CDE9164408F039
:1052C000C3F908B1FFF7FFF80248FFF733FF18B042
:1052D00010BD00BF54572520002C014010B50024FC
:1052E0008AB01C22214603A8CDE90044029424F090
:1052F000B6FF1648164B8460C0E900344FF0FF3308
:105300008461C0E9033401F0A7FE08B1FFF7DBF8C0
:1053100069460E480094029408F024F908B1FFF79A
:10532000D2F800236022CDE903230C2207480DEBBD
:1053300002010593079301F088FF08B1FFF7C3F856
:105340000248FFF7F7FE0AB010BD00BFBC5625208B
:10535000000C004010B5002498B01C22214604A87F
:10536000CDE90144039424F07AFF342221460BA8AE
:1053700024F075FF2348244B8460C0E900344FF6C5
:10538000FF73C0E90544C0E9033401F035FE08B1FC
:10539000FFF799F801A91B48CDE90144039408F0EF
:1053A000E1F808B1FFF78FF80024042204A915489A
:1053B000CDE90444CDE90644CDE908440A9401F05E
:1053C0000FFF08B1FFF77FF84FF40053CDE9103419
:1053D0004FF000730BA90B48CDE90B44CDE90D4408
:1053E0000F94CDE91244CDE91434CDE9164408F008
:1053F0002BF908B1FFF767F80248FFF79BFE18B0DA
:1054000010BD00BFA057252000340140102210B568
:1054100000249CB000210DEB020024F020FF1C2290
:10542000214608A8CDE90144039424F018FF214641
:1054300034220FA824F013FF04232948294984604B
:10544000C0E9001340F2E733C0E90544C0E9033482
:1054500001F0A2FD08B1FFF736F84FF4805304A91C
:105460001F48049302F07CF808B1FFF72CF81C48A1
:1054700001F0F2FD08B1FFF726F8002301A9184852
:105480000193039308F06EF808B1FFF71CF80024AD
:10549000602240F2E53308A9CDE9082310482246EE
:1054A000CDE90A44CDE90C440E9401F0CEFE08B1DA
:1054B000FFF709F84FF400530FA90948CDE90F444D
:1054C000CDE911441394CDE914341B9408F0BCF8D1
:1054D00008B1FEF7F8FF0248FFF72CFE1CB010BD24
:1054E000245625200040014008B50848084B0360B9
:1054F00000238380C0E905330123036208F01EF90D
:1055000018B1BDE80840FEF7DEBF08BDEC57252006
:10551000003002400268094B82B09A420CD1084B1D
:10552000D3F8882042F48052C3F88820D3F888301A
:1055300003F480530193019B02B070470030024096
:10554000000C024610B500248EB03422002101A8C0
:1055500024F085FE2248234B40F22B3CC0E9003466
:105560000323C0E905330B23C0E9073340F2EB13F3
:1055700040F2333EC0E909C340F2F313C0E90244EC
:105580000461C0E90BE3848680F8364005F024FB13
:1055900008B1FEF798FF4FF4F0730121CDE9043113
:1055A000FF214FF48060CDE9061405214FF44872C5
:1055B000CDE908014FF00051CDE90224CDE90A12EE
:1055C0000748002201A901940C93ADF834408DF8EE
:1055D000364005F0DEFB08B1FEF775FF0EB010BDDA
:1055E00010582520006801401422F0B50446C3B0CD
:1055F00000210DEB020024F032FEE02200210AA877
:1056000024F02DFE22684A4B9A4240F08E80002200
:105610000223CDE90A23042303224B21CDE91523DC
:1056200002230520CDE917130C23CDE919034FF40C
:1056300080230AA81D9305F0F7FD08B1FEF743FF8C
:105640003C4B0024D3F8A420022642F08062C3F829
:10565000A420D3F8A420032502F080620092009ACF
:10566000D3F88C20082742F01002C3F88C20D3F81E
:105670008C2005A902F010020192019AD3F88C2027
:105680002D4842F00802C3F88C20D3F88C2002F099
:1056900008020292029AD3F88C2042F04002C3F82A
:1056A0008C20D3F88C2002F040020392039AD3F8A6
:1056B0008C2042F02002C3F88C20D3F88C30CDE946
:1056C000074503F020030493049B4FF68573099765
:1056D000CDE9053603F054FC4FF60B7305A91748C6
:1056E000CDE90536CDE90745099703F049FC40238C
:1056F000CDE90536072305A911480993CDE90745EA
:1057000003F03EFC4FF4784305A90E48CDE9053679
:10571000CDE90745099703F033FC87202246052190
:1057200003F09AFA872003F0CBFA43B0F0BD00BF34
:1057300000680140000C024600100242000C0242C8
:10574000001802420014024208B50548054B0360E8
:1057500000F0D0F818B1BDE80840FEF7B4BE08BDAF
:10576000B8582520001002400268094B82B09A42C6
:105770000CD1084BD3F8882042F00202C3F88820ED
:10578000D3F8883003F002030193019B02B0704705
:1057900000100240000C024601220E48D0F888306A
:1057A00043F47003C0F888300B4B1A600022DA61B2
:1057B0001A625A62196821F0A85121F41021196067
:1057C0009A62196821F4802119601A654FF000630C
:1057D0008360704700ED00E0000C02461D4BDA6B61
:1057E00002F44032824208D1B2F5803F03D9DA6830
:1057F00042F48022DA60002070474FF47A71DA6850
:10580000B0F5803F22F4E02288BF42F480221043AA
:10581000D860114B1A683223B2FBF1F25343B3FB49
:10582000F1F301331A460B49C868000404D40AB9DD
:1058300003207047013AF7E7002AF9D0054AD16BF7
:10584000090403D4002BF3D0013BF8E7002BD2D19D
:10585000EEE700BF0008024614282320024BD86B55
:1058600000F44030704700BF000802464FF47A71E0
:10587000124B1A683223B2FBF1F25343B3FBF1F33C
:105880000F4A0133916850B921F002019160D16B48
:1058900088070ED50BB903207047013BF7E741F0AD
:1058A00002019160D16B890703D4002BF3D0013B37
:1058B000F8E7002BEFD00020704700BF142823200A
:1058C00000080246024A136943F00053136170470F
:1058D00000080246024A136943F08043136170478F
:1058E00000080246024AD36A43F00103D3627047BC
:1058F0000008024610B5044698B190F8213003F034
:10590000FF021BB980F82020FFF72EFF00200123A3
:10591000C4E90100C4E903006062606184F82130D9
:1059200010BD0120FCE710B50379DBB2012B11D1CA
:105930004279012A0ED00222046843710271626D1D
:10594000096822F480020A436265037100234371EF
:10595000184610BD0220FCE7D1E9003213430A4A81
:10596000D361D1E9023213438A691343074A536270
:10597000136A086903F0FF234969034343EA0143BB
:1059800013620020704700BF00780046007C00468C
:1059900037B52B4D0446D5F894305B0718D5FFF783
:1059A0005DFF20F48033B3F5003F26D1B4F1805F72
:1059B0002CBF00200120234A136823F00F03034368
:1059C0001360136803F00F03181A18BF01201BE0BF
:1059D000D5F8943043F00403C5F89430D5F89430EA
:1059E00003F004030193019BFFF738FFD5F89430CF
:1059F00023F00403C5F89430D3E7B4F1805F05D2F7
:105A0000B0F5803F15D0012003B030BDB4F1005F88
:105A100006D980B9B4F1405F8CBF00200120CAE7ED
:105A2000B4F1805F09D1B0F5803F0CBF01200220A6
:105A3000C1E70320BFE70020BDE70120BBE700BFAF
:105A4000000C02460020024070B5124C86B0D4F81B
:105A50008C30164643F00103C4F88C30D4F88C30F7
:105A60004FF4807203F001030093009B0223CDE901
:105A70000123049300230D46074801A903930593CE
:105A800003F07EFAE16921F0FE4131432943E161EF
:105A900006B070BD000C02460000024230B53E4B1D
:105AA000DA69996A12F00C0205D00C2A42D101F091
:105AB000030101293ED19968090254BFD3F8F4309B
:105AC0009B68364954BFC3F303331B0F51F82300BF
:105AD000002A5BD000230C2A5BD12F49B7EE006A65
